{"abi":[{"type":"function","name":"selectWinners","inputs":[{"name":"solutions","type":"tuple[]","internalType":"struct AuctionTypes.Solution[]","components":[{"name":"id","type":"string","internalType":"string"},{"name":"solver","type":"address","internalType":"address"},{"name":"score","type":"uint256","internalType":"uint256"},{"name":"trades","type":"tuple[]","internalType":"struct AuctionTypes.Trade[]","components":[{"name":"id","type":"string","internalType":"string"},{"name":"sellToken","type":"address","internalType":"address"},{"name":"buyToken","type":"address","internalType":"address"},{"name":"score","type":"uint256","internalType":"uint256"}]}]}],"outputs":[{"name":"winners","type":"tuple[]","internalType":"struct AuctionTypes.Solution[]","components":[{"name":"id","type":"string","internalType":"string"},{"name":"solver","type":"address","internalType":"address"},{"name":"score","type":"uint256","internalType":"uint256"},{"name":"trades","type":"tuple[]","internalType":"struct AuctionTypes.Trade[]","components":[{"name":"id","type":"string","internalType":"string"},{"name":"sellToken","type":"address","internalType":"address"},{"name":"buyToken","type":"address","internalType":"address"},{"name":"score","type":"uint256","internalType":"uint256"}]}]}],"stateMutability":"pure"}],"bytecode":{"object":"0x60808060405234601557610e56908161001a8239f35b5f80fdfe6080806040526004361015610012575f80fd5b5f3560e01c63b2fab98914610025575f80fd5b34610a08576020366003190112610a08576004359067ffffffffffffffff8211610a085736602383011215610a085781600401359067ffffffffffffffff8211610a08576024830192602436918460051b010111610a085781156109d7575061008d81610bd0565b915f805b8381106108e957506100a281610bd0565b935f5b8281106108bf575050506100b882610a9e565b926100c66040519485610a7c565b828452601f196100d584610a9e565b013660208601375f905b8382106108175750506100f182610c46565b5f5b838110610802575060015b83811061076157505f805b84811061072b575061011a90610c46565b935f905f5b8581106106e857505050505f905f915b84518310156101705761016860019161016061015661014e878a610ad7565b518887610aeb565b6060810190610b0d565b919050610c39565b92019161012f565b61017e919250939293610c46565b915f9061018b8151610c46565b935f915f905b80518210156102e4576101a48282610ad7565b51906101bd6101b7610156848c8b610aeb565b90610c78565b986101c88a51610c46565b975f5b8b518110156101f457806101e16001928e610ad7565b51516101ed828d610ad7565b52016101cb565b5091909893959294979699505f985f5b88518110806102dc575b1561025c575f5b8c811061022c575b5061022790610c2b565b610204565b610236828b610ad7565b51610241828d610ad7565b511461024f57600101610215565b5060019a5061022761021d565b5097949099969193989592951561027b575b5050600101909496610191565b6102986102918793979b9699949a959b93610c2b565b9285610ad7565b525f5b85518110156102cc57806102b160019288610ad7565b516102c56102be8a610c2b565b998b610ad7565b520161029b565b509350949196909560015f61026e565b508a1561020e565b858789866102f181610c46565b925f5b8281106106c95750505081519261030a84610a9e565b936103186040519586610a7c565b808552610327601f1991610a9e565b015f5b8181106106995750505f5b8351811015610576576103488185610ad7565b519083610359610156848387610aeb565b90508461036582610a9e565b916103736040519384610a7c565b808352601f1961038282610a9e565b015f5b8181106105365750505f5b818110610422575050846103ee60406103d76103cf60206103c9866103c16103bb60019e8d8c610aeb565b80610b43565b9b9099610aeb565b01610b76565b938b8b610aeb565b013592604051956103e787610a60565b3691610b8a565b8452858060a01b03166020840152604083015260608201526104108288610ad7565b5261041b8187610ad7565b5001610335565b918683929496979561043392610aeb565b6060810161044091610b0d565b61044a9291610aeb565b8061045491610b43565b9082610461868b8b610aeb565b6060810161046e91610b0d565b6104789291610aeb565b60200161048490610b76565b83610490878c8c610aeb565b6060810161049d91610b0d565b6104a79291610aeb565b6040016104b390610b76565b90846104c0888d8d610aeb565b606081016104cd91610b0d565b6104d79291610aeb565b6060013592604051946104e986610a60565b36906104f492610b8a565b84526001600160a01b039081166020850152166040830152606082015261051b8286610ad7565b526105268185610ad7565b5060010186929493918691610390565b909250602091939596945060405161054d81610a60565b606081525f838201525f60408201525f6060820152828288010152019186918894969593610385565b846040518091602082016020835281518091526040830190602060408260051b8601019301915f905b8282106105ae57505050500390f35b919390929450603f19868203018252845160606105d48251608085526080850190610a0c565b9160018060a01b036020820151166020850152604081015160408501520151916060818303910152815180825260208201906020808260051b8501019401925f5b828110610637575050505050602080600192960192019201859493919261059f565b9091929394602080600192601f198682030188528851906060806106648451608085526080850190610a0c565b93878060a01b03868201511686850152878060a01b036040820151166040850152015191015297019501910192919092610615565b6020906040516106a881610a60565b606081525f838201525f60408201526060808201528282890101520161032a565b806106d660019284610ad7565b516106e18288610ad7565b52016102f4565b6106f28185610ad7565b516106fd8184610ad7565b5161070c575b5060010161011f565b836107249161071e600194968b610ad7565b52610c2b565b9290610703565b61073f6107388285610ad7565b5187610ad7565b5161074d575b600101610109565b90610759600191610c2b565b919050610745565b61076e8183969496610ad7565b5192815b80156107f3575f198101908082116107df5761078e8286610ad7565b5190604061079d838a8c610aeb565b013560406107ac898b8d610aeb565b013511156107c4576107be9086610ad7565b52610772565b60019493989692506107d891505b85610ad7565b52016100fe565b634e487b7160e01b5f52601160045260245ffd5b936107d86001939297956107d2565b808061081060019385610ad7565b52016100f3565b61082b6101b7610156848787999697610aeb565b9060018251146108a7576001945f5b835181101561089757602061084f8286610ad7565b51015161086761085f8387610ad7565b515185610de1565b116108745760010161083a565b509450919492600191505f5b61088a8288610ad7565b90151590525b01906100df565b5094600192509593909295610880565b91949260018092506108b98288610ad7565b52610890565b806108cc60019284610ad7565b516108d78289610ad7565b526108e28188610ad7565b50016100a5565b6108fa6101b7610156838787610aeb565b60018151036109ce57602061091961091183610ab6565b515192610ab6565b5101515f805b85811061097a575b501561093a575b50506001905b01610091565b9261097291600193946040519161095083610a30565b825260208201526109618289610ad7565b5261096c8188610ad7565b50610c2b565b91905f61092e565b8284610986838c610ad7565b515114610996575060010161091f565b915060206109a4828b610ad7565b51015182116109b8575b505060015f610927565b6109c46020918a610ad7565b510152805f6109ae565b50600190610934565b62461bcd60e51b815260206004820152600c60248201526b4e6f20736f6c7574696f6e7360a01b6044820152606490fd5b5f80fd5b805180835260209291819084018484015e5f828201840152601f01601f1916010190565b6040810190811067ffffffffffffffff821117610a4c57604052565b634e487b7160e01b5f52604160045260245ffd5b6080810190811067ffffffffffffffff821117610a4c57604052565b90601f8019910116810190811067ffffffffffffffff821117610a4c57604052565b67ffffffffffffffff8111610a4c5760051b60200190565b805115610ac35760200190565b634e487b7160e01b5f52603260045260245ffd5b8051821015610ac35760209160051b010190565b9190811015610ac35760051b81013590607e1981360301821215610a08570190565b903590601e1981360301821215610a08570180359067ffffffffffffffff8211610a0857602001918160051b36038313610a0857565b903590601e1981360301821215610a08570180359067ffffffffffffffff8211610a0857602001918136038313610a0857565b356001600160a01b0381168103610a085790565b92919267ffffffffffffffff8211610a4c5760405191610bb4601f8201601f191660200184610a7c565b829481845281830111610a08578281602093845f960137010152565b90610bda82610a9e565b610be76040519182610a7c565b8281528092610bf8601f1991610a9e565b01905f5b828110610c0857505050565b602090604051610c1781610a30565b5f81525f8382015282828501015201610bfc565b5f1981146107df5760010190565b919082018092116107df57565b90610c5082610a9e565b610c5d6040519182610a7c565b8281528092610c6e601f1991610a9e565b0190602036910137565b919091610c8483610bd0565b925f915f5b828110610cd557505050610c9c81610bd0565b925f5b828110610cab57505050565b80610cb860019284610ad7565b51610cc38288610ad7565b52610cce8187610ad7565b5001610c9f565b610ce560206103c9838686610aeb565b610cf560406103c9848787610aeb565b6040519060208201926bffffffffffffffffffffffff199060601b1683526bffffffffffffffffffffffff199060601b16603482015260288152610d3a604882610a7c565b5190206060610d4a838686610aeb565b01355f805b878110610da2575b5015610d68575b5050600101610c89565b94610d9a916001939660405191610d7e83610a30565b82526020820152610d8f828a610ad7565b5261096c8189610ad7565b93905f610d5e565b83610dad828c610ad7565b515114610dbc57600101610d4f565b60209150610dca908a610ad7565b5101610dd7828251610c39565b905260015f610d57565b5f5b8151811015610e195782610df78284610ad7565b515114610e0657600101610de3565b60209250610e1391610ad7565b51015190565b5050505f9056fea2646970667358221220021b30adf33cb70a9f5b0524c1de0f1c54eaa30c31b8e7adcf7395554dec39d264736f6c634300081a0033","linkReferences":{}},"methodIdentifiers":{"selectWinners((string,address,uint256,(string,address,address,uint256)[])[])":"b2fab989"},"id":19}